{
  "address": "0x2AF88995303B5e02b705A904e478729CD9ABc319",
  "abi": [
    {
      "inputs": [
        {
          "internalType": "address",
          "name": "defaultAdmin",
          "type": "address"
        },
        {
          "internalType": "address",
          "name": "tokenAddress",
          "type": "address"
        },
        {
          "internalType": "bytes32",
          "name": "seed",
          "type": "bytes32"
        }
      ],
      "stateMutability": "nonpayable",
      "type": "constructor"
    },
    {
      "inputs": [],
      "name": "AccessControlBadConfirmation",
      "type": "error"
    },
    {
      "inputs": [
        {
          "internalType": "address",
          "name": "account",
          "type": "address"
        },
        {
          "internalType": "bytes32",
          "name": "neededRole",
          "type": "bytes32"
        }
      ],
      "name": "AccessControlUnauthorizedAccount",
      "type": "error"
    },
    {
      "inputs": [],
      "name": "EnforcedPause",
      "type": "error"
    },
    {
      "inputs": [],
      "name": "ExpectedPause",
      "type": "error"
    },
    {
      "inputs": [],
      "name": "ReentrancyGuardReentrantCall",
      "type": "error"
    },
    {
      "anonymous": false,
      "inputs": [
        {
          "indexed": false,
          "internalType": "uint256",
          "name": "sessionId",
          "type": "uint256"
        },
        {
          "indexed": false,
          "internalType": "address",
          "name": "player",
          "type": "address"
        },
        {
          "indexed": false,
          "internalType": "uint256",
          "name": "points",
          "type": "uint256"
        }
      ],
      "name": "GameSessionEnded",
      "type": "event"
    },
    {
      "anonymous": false,
      "inputs": [
        {
          "indexed": false,
          "internalType": "uint256",
          "name": "sessionId",
          "type": "uint256"
        },
        {
          "indexed": false,
          "internalType": "address",
          "name": "player",
          "type": "address"
        }
      ],
      "name": "GameSessionStarted",
      "type": "event"
    },
    {
      "anonymous": false,
      "inputs": [
        {
          "indexed": false,
          "internalType": "address",
          "name": "account",
          "type": "address"
        }
      ],
      "name": "Paused",
      "type": "event"
    },
    {
      "anonymous": false,
      "inputs": [
        {
          "indexed": true,
          "internalType": "bytes32",
          "name": "role",
          "type": "bytes32"
        },
        {
          "indexed": true,
          "internalType": "bytes32",
          "name": "previousAdminRole",
          "type": "bytes32"
        },
        {
          "indexed": true,
          "internalType": "bytes32",
          "name": "newAdminRole",
          "type": "bytes32"
        }
      ],
      "name": "RoleAdminChanged",
      "type": "event"
    },
    {
      "anonymous": false,
      "inputs": [
        {
          "indexed": true,
          "internalType": "bytes32",
          "name": "role",
          "type": "bytes32"
        },
        {
          "indexed": true,
          "internalType": "address",
          "name": "account",
          "type": "address"
        },
        {
          "indexed": true,
          "internalType": "address",
          "name": "sender",
          "type": "address"
        }
      ],
      "name": "RoleGranted",
      "type": "event"
    },
    {
      "anonymous": false,
      "inputs": [
        {
          "indexed": true,
          "internalType": "bytes32",
          "name": "role",
          "type": "bytes32"
        },
        {
          "indexed": true,
          "internalType": "address",
          "name": "account",
          "type": "address"
        },
        {
          "indexed": true,
          "internalType": "address",
          "name": "sender",
          "type": "address"
        }
      ],
      "name": "RoleRevoked",
      "type": "event"
    },
    {
      "anonymous": false,
      "inputs": [
        {
          "indexed": false,
          "internalType": "address",
          "name": "account",
          "type": "address"
        }
      ],
      "name": "Unpaused",
      "type": "event"
    },
    {
      "inputs": [],
      "name": "DEFAULT_ADMIN_ROLE",
      "outputs": [
        {
          "internalType": "bytes32",
          "name": "",
          "type": "bytes32"
        }
      ],
      "stateMutability": "view",
      "type": "function"
    },
    {
      "inputs": [],
      "name": "NATIVE_TOKEN_ADDRESS",
      "outputs": [
        {
          "internalType": "address",
          "name": "",
          "type": "address"
        }
      ],
      "stateMutability": "view",
      "type": "function"
    },
    {
      "inputs": [],
      "name": "PAUSER_ROLE",
      "outputs": [
        {
          "internalType": "bytes32",
          "name": "",
          "type": "bytes32"
        }
      ],
      "stateMutability": "view",
      "type": "function"
    },
    {
      "inputs": [],
      "name": "SEED",
      "outputs": [
        {
          "internalType": "bytes32",
          "name": "",
          "type": "bytes32"
        }
      ],
      "stateMutability": "view",
      "type": "function"
    },
    {
      "inputs": [],
      "name": "SIGNER_ROLE",
      "outputs": [
        {
          "internalType": "bytes32",
          "name": "",
          "type": "bytes32"
        }
      ],
      "stateMutability": "view",
      "type": "function"
    },
    {
      "inputs": [
        {
          "internalType": "uint256",
          "name": "sessionId",
          "type": "uint256"
        },
        {
          "internalType": "uint256",
          "name": "points",
          "type": "uint256"
        },
        {
          "internalType": "bytes",
          "name": "signature",
          "type": "bytes"
        }
      ],
      "name": "endGameSession",
      "outputs": [],
      "stateMutability": "nonpayable",
      "type": "function"
    },
    {
      "inputs": [
        {
          "internalType": "uint256",
          "name": "",
          "type": "uint256"
        }
      ],
      "name": "gameSessions",
      "outputs": [
        {
          "internalType": "address",
          "name": "player",
          "type": "address"
        },
        {
          "internalType": "bool",
          "name": "isEnded",
          "type": "bool"
        },
        {
          "internalType": "uint256",
          "name": "points",
          "type": "uint256"
        }
      ],
      "stateMutability": "view",
      "type": "function"
    },
    {
      "inputs": [
        {
          "internalType": "bytes32",
          "name": "role",
          "type": "bytes32"
        }
      ],
      "name": "getRoleAdmin",
      "outputs": [
        {
          "internalType": "bytes32",
          "name": "",
          "type": "bytes32"
        }
      ],
      "stateMutability": "view",
      "type": "function"
    },
    {
      "inputs": [
        {
          "internalType": "bytes32",
          "name": "role",
          "type": "bytes32"
        },
        {
          "internalType": "address",
          "name": "account",
          "type": "address"
        }
      ],
      "name": "grantRole",
      "outputs": [],
      "stateMutability": "nonpayable",
      "type": "function"
    },
    {
      "inputs": [
        {
          "internalType": "bytes32",
          "name": "role",
          "type": "bytes32"
        },
        {
          "internalType": "address",
          "name": "account",
          "type": "address"
        }
      ],
      "name": "hasRole",
      "outputs": [
        {
          "internalType": "bool",
          "name": "",
          "type": "bool"
        }
      ],
      "stateMutability": "view",
      "type": "function"
    },
    {
      "inputs": [],
      "name": "pause",
      "outputs": [],
      "stateMutability": "nonpayable",
      "type": "function"
    },
    {
      "inputs": [],
      "name": "paused",
      "outputs": [
        {
          "internalType": "bool",
          "name": "",
          "type": "bool"
        }
      ],
      "stateMutability": "view",
      "type": "function"
    },
    {
      "inputs": [
        {
          "internalType": "address",
          "name": "",
          "type": "address"
        }
      ],
      "name": "priceByToken",
      "outputs": [
        {
          "internalType": "uint256",
          "name": "",
          "type": "uint256"
        }
      ],
      "stateMutability": "view",
      "type": "function"
    },
    {
      "inputs": [
        {
          "internalType": "bytes32",
          "name": "role",
          "type": "bytes32"
        },
        {
          "internalType": "address",
          "name": "callerConfirmation",
          "type": "address"
        }
      ],
      "name": "renounceRole",
      "outputs": [],
      "stateMutability": "nonpayable",
      "type": "function"
    },
    {
      "inputs": [
        {
          "internalType": "bytes32",
          "name": "role",
          "type": "bytes32"
        },
        {
          "internalType": "address",
          "name": "account",
          "type": "address"
        }
      ],
      "name": "revokeRole",
      "outputs": [],
      "stateMutability": "nonpayable",
      "type": "function"
    },
    {
      "inputs": [
        {
          "internalType": "address",
          "name": "token",
          "type": "address"
        },
        {
          "internalType": "uint256",
          "name": "price",
          "type": "uint256"
        }
      ],
      "name": "setPriceByToken",
      "outputs": [],
      "stateMutability": "nonpayable",
      "type": "function"
    },
    {
      "inputs": [
        {
          "internalType": "uint256",
          "name": "sessionId",
          "type": "uint256"
        }
      ],
      "name": "startGameSession",
      "outputs": [],
      "stateMutability": "payable",
      "type": "function"
    },
    {
      "inputs": [
        {
          "internalType": "uint256",
          "name": "sessionId",
          "type": "uint256"
        },
        {
          "internalType": "address",
          "name": "token",
          "type": "address"
        },
        {
          "internalType": "uint256",
          "name": "amount",
          "type": "uint256"
        },
        {
          "internalType": "uint256",
          "name": "deadline",
          "type": "uint256"
        },
        {
          "internalType": "uint8",
          "name": "v",
          "type": "uint8"
        },
        {
          "internalType": "bytes32",
          "name": "r",
          "type": "bytes32"
        },
        {
          "internalType": "bytes32",
          "name": "s",
          "type": "bytes32"
        }
      ],
      "name": "startGameSessionWithPermit",
      "outputs": [],
      "stateMutability": "nonpayable",
      "type": "function"
    },
    {
      "inputs": [
        {
          "internalType": "uint256",
          "name": "sessionId",
          "type": "uint256"
        },
        {
          "internalType": "address",
          "name": "token",
          "type": "address"
        }
      ],
      "name": "startGameSessionWithTransfer",
      "outputs": [],
      "stateMutability": "payable",
      "type": "function"
    },
    {
      "inputs": [
        {
          "internalType": "bytes4",
          "name": "interfaceId",
          "type": "bytes4"
        }
      ],
      "name": "supportsInterface",
      "outputs": [
        {
          "internalType": "bool",
          "name": "",
          "type": "bool"
        }
      ],
      "stateMutability": "view",
      "type": "function"
    },
    {
      "inputs": [],
      "name": "tradCastPointToken",
      "outputs": [
        {
          "internalType": "contract IERC20Mintable",
          "name": "",
          "type": "address"
        }
      ],
      "stateMutability": "view",
      "type": "function"
    },
    {
      "inputs": [],
      "name": "unpause",
      "outputs": [],
      "stateMutability": "nonpayable",
      "type": "function"
    },
    {
      "inputs": [
        {
          "internalType": "address",
          "name": "to",
          "type": "address"
        },
        {
          "internalType": "address",
          "name": "_token",
          "type": "address"
        },
        {
          "internalType": "uint256",
          "name": "_amount",
          "type": "uint256"
        }
      ],
      "name": "withdraw",
      "outputs": [
        {
          "internalType": "bool",
          "name": "success",
          "type": "bool"
        }
      ],
      "stateMutability": "nonpayable",
      "type": "function"
    }
  ],
  "transactionHash": "0x537f4ef5f2b7e7bfa30a575df857bf45fa2580e88982f1e0a16cc7b5b0bfe5fe",
  "args": [
    "0xbA7Be300A1F9a6Ef2c7557bc54d82Dd99a83f170",
    "0x346528259cdF48fa1e5B23194828B477362B80f0",
    "0xe420469c478d66526e7e1c31e8d44a350b9661ec6a81506835442e1084d92bc8"
  ],
  "numDeployments": 1,
  "solcInputHash": "997103557721b2e4a92a32f383dffcdf",
  "bytecode": "0x60a060405234801561000f575f5ffd5b50604051611f3d380380611f3d83398101604081905261002e9161019c565b60017f9b779b17422d0df92223018b32b4d1fa46e071723d6817e2486d003becc55f00556001600160a01b038216610064575f5ffd5b61006e5f846100ef565b506100997f65d7a28e3265b37a6474929f336521b332c1681b933f6cb9f3376673440d862a846100ef565b506100c47fe2f4eaae4a9751e85a3e4a7b9587827a877f29914755229b07a7b2da98285f70846100ef565b50600280546001600160a01b0319166001600160a01b039390931692909217909155608052506101d5565b5f8281526001602090815260408083206001600160a01b038516845290915281205460ff16610178575f8381526001602081815260408084206001600160a01b0387168086529252808420805460ff19169093179092559051339286917f2f8788117e7eff1d82e926ec794901d17c78024a50270940304540a733656f0d9190a450600161017b565b505f5b92915050565b80516001600160a01b0381168114610197575f5ffd5b919050565b5f5f5f606084860312156101ae575f5ffd5b6101b784610181565b92506101c560208501610181565b9150604084015190509250925092565b608051611d496101f45f395f81816101e20152610bf50152611d495ff3fe608060405260043610610178575f3560e01c80635055eec6116100d1578063a1ebf35d1161007c578063d9caed1211610057578063d9caed12146104eb578063df2ebdbb1461050a578063e63ab1e914610531575f5ffd5b8063a1ebf35d14610486578063a217fddf146104b9578063d547741f146104cc575f5ffd5b8063812d4d26116100ac578063812d4d26146104025780638456cb591461042157806391d1485414610435575f5ffd5b80635055eec6146103ae5780635c975abb146103c1578063600f1a1b146103d7575f5ffd5b80632084a1a21161013157806334a8014b1161010c57806334a8014b146102e357806336568abe1461037b5780633f4ba83a1461039a575f5ffd5b80632084a1a214610276578063248a9ca3146102955780632f2ff15d146102c4575f5ffd5b80630edc4737116101615780630edc4737146101d157806315572a26146102125780631c00d3bf14610263575f5ffd5b806301ffc9a71461017c578063041e2b80146101b0575b5f5ffd5b348015610187575f5ffd5b5061019b610196366004611a31565b610564565b60405190151581526020015b60405180910390f35b3480156101bb575f5ffd5b506101cf6101ca366004611a9f565b6105fc565b005b3480156101dc575f5ffd5b506102047f000000000000000000000000000000000000000000000000000000000000000081565b6040519081526020016101a7565b34801561021d575f5ffd5b5060025461023e9073ffffffffffffffffffffffffffffffffffffffff1681565b60405173ffffffffffffffffffffffffffffffffffffffff90911681526020016101a7565b6101cf610271366004611b05565b610907565b348015610281575f5ffd5b506101cf610290366004611b49565b610bdf565b3480156102a0575f5ffd5b506102046102af366004611b05565b5f908152600160208190526040909120015490565b3480156102cf575f5ffd5b506101cf6102de366004611c4b565b610fbe565b3480156102ee575f5ffd5b506103496102fd366004611b05565b60046020525f90815260409020805460019091015473ffffffffffffffffffffffffffffffffffffffff82169174010000000000000000000000000000000000000000900460ff169083565b6040805173ffffffffffffffffffffffffffffffffffffffff90941684529115156020840152908201526060016101a7565b348015610386575f5ffd5b506101cf610395366004611c4b565b610fe9565b3480156103a5575f5ffd5b506101cf611042565b6101cf6103bc366004611c4b565b611074565b3480156103cc575f5ffd5b505f5460ff1661019b565b3480156103e2575f5ffd5b506102046103f1366004611c75565b60036020525f908152604090205481565b34801561040d575f5ffd5b506101cf61041c366004611c8e565b61132a565b34801561042c575f5ffd5b506101cf61135d565b348015610440575f5ffd5b5061019b61044f366004611c4b565b5f91825260016020908152604080842073ffffffffffffffffffffffffffffffffffffffff93909316845291905290205460ff1690565b348015610491575f5ffd5b506102047fe2f4eaae4a9751e85a3e4a7b9587827a877f29914755229b07a7b2da98285f7081565b3480156104c4575f5ffd5b506102045f81565b3480156104d7575f5ffd5b506101cf6104e6366004611c4b565b61138f565b3480156104f6575f5ffd5b5061019b610505366004611cb6565b6113b4565b348015610515575f5ffd5b5061023e73eeeeeeeeeeeeeeeeeeeeeeeeeeeeeeeeeeeeeeee81565b34801561053c575f5ffd5b506102047f65d7a28e3265b37a6474929f336521b332c1681b933f6cb9f3376673440d862a81565b5f7fffffffff0000000000000000000000000000000000000000000000000000000082167f7965db0b0000000000000000000000000000000000000000000000000000000014806105f657507f01ffc9a7000000000000000000000000000000000000000000000000000000007fffffffff000000000000000000000000000000000000000000000000000000008316145b92915050565b73ffffffffffffffffffffffffffffffffffffffff86165f908152600360205260409020548061068d576040517f08c379a000000000000000000000000000000000000000000000000000000000815260206004820152601360248201527f546f6b656e206e6f7420737570706f727465640000000000000000000000000060448201526064015b60405180910390fd5b808610156106f7576040517f08c379a000000000000000000000000000000000000000000000000000000000815260206004820152601460248201527f496e73756666696369656e74207061796d656e740000000000000000000000006044820152606401610684565b6040517fd505accf000000000000000000000000000000000000000000000000000000008152336004820152306024820152604481018790526064810186905260ff8516608482015260a4810184905260c4810183905273ffffffffffffffffffffffffffffffffffffffff88169063d505accf9060e4015f604051808303815f87803b158015610786575f5ffd5b505af1158015610798573d5f5f3e3d5ffd5b50506040517f23b872dd0000000000000000000000000000000000000000000000000000000081523360048201523060248201526044810189905273ffffffffffffffffffffffffffffffffffffffff8a1692506323b872dd91506064016020604051808303815f875af1158015610812573d5f5f3e3d5ffd5b505050506040513d601f19601f820116820180604052508101906108369190611cf0565b5060408051606081018252338082525f60208084018281528486018381528e84526004835292869020945185549151151574010000000000000000000000000000000000000000027fffffffffffffffffffffff00000000000000000000000000000000000000000090921673ffffffffffffffffffffffffffffffffffffffff90911617178455905160019093019290925582518b8152918201527f6c49f37597e4c23365e329a588330938d7df1cfcb3790a399f83227a612c2973910160405180910390a15050505050505050565b61090f611507565b610917611535565b73eeeeeeeeeeeeeeeeeeeeeeeeeeeeeeeeeeeeeeee5f5260036020527f40c35f83c179e47de306c9fe55fdc60064f11dd52adb51ab61b5643ee626f98d546109bb576040517f08c379a000000000000000000000000000000000000000000000000000000000815260206004820152601360248201527f546f6b656e206e6f7420737570706f72746564000000000000000000000000006044820152606401610684565b73eeeeeeeeeeeeeeeeeeeeeeeeeeeeeeeeeeeeeeee5f5260036020527f40c35f83c179e47de306c9fe55fdc60064f11dd52adb51ab61b5643ee626f98d54341015610a62576040517f08c379a000000000000000000000000000000000000000000000000000000000815260206004820152601460248201527f496e73756666696369656e74207061796d656e740000000000000000000000006044820152606401610684565b5f8181526004602052604090205473ffffffffffffffffffffffffffffffffffffffff1615610aed576040517f08c379a000000000000000000000000000000000000000000000000000000000815260206004820152601760248201527f53657373696f6e20616c726561647920737461727465640000000000000000006044820152606401610684565b60408051606081018252338082525f60208084018281528486018381528784526004835292869020945185549151151574010000000000000000000000000000000000000000027fffffffffffffffffffffff00000000000000000000000000000000000000000090921673ffffffffffffffffffffffffffffffffffffffff9091161717845590516001909301929092558251848152918201527f6c49f37597e4c23365e329a588330938d7df1cfcb3790a399f83227a612c2973910160405180910390a1610bdc60017f9b779b17422d0df92223018b32b4d1fa46e071723d6817e2486d003becc55f0055565b50565b610be7611507565b610bef611535565b604080517f00000000000000000000000000000000000000000000000000000000000000006020820152908101849052606081018390525f90608001604051602081830303815290604052805190602001209050610c79817f19457468657265756d205369676e6564204d6573736167653a0a3332000000005f908152601c91909152603c902090565b90505f5f610c878385611573565b5090925090505f816003811115610ca057610ca0611d0f565b148015610cf0575073ffffffffffffffffffffffffffffffffffffffff82165f9081527fb1a26a75446b1d67f01afe7a745dc85c05c9752b7d1cdfcd19e8f115973e8df8602052604090205460ff165b610d56576040517f08c379a000000000000000000000000000000000000000000000000000000000815260206004820152601160248201527f696e76616c6964207369676e61747572650000000000000000000000000000006044820152606401610684565b5f8681526004602052604090205473ffffffffffffffffffffffffffffffffffffffff163314610de2576040517f08c379a000000000000000000000000000000000000000000000000000000000815260206004820152601560248201527f4e6f74207468652073657373696f6e206f776e657200000000000000000000006044820152606401610684565b5f8681526004602052604090205474010000000000000000000000000000000000000000900460ff1615610e72576040517f08c379a000000000000000000000000000000000000000000000000000000000815260206004820152601560248201527f53657373696f6e20616c726561647920656e64656400000000000000000000006044820152606401610684565b5f8681526004602081905260409182902080547fffffffffffffffffffffff00ffffffffffffffffffffffffffffffffffffffff167401000000000000000000000000000000000000000017815560010187905560025491517f40c10f1900000000000000000000000000000000000000000000000000000000815233918101919091526024810187905273ffffffffffffffffffffffffffffffffffffffff909116906340c10f19906044015f604051808303815f87803b158015610f36575f5ffd5b505af1158015610f48573d5f5f3e3d5ffd5b5050604080518981523360208201529081018890527fb2f627d9748e06262adce015630f8770edba01fef453a2217db958e397693b1b9250606001905060405180910390a1505050610fb960017f9b779b17422d0df92223018b32b4d1fa46e071723d6817e2486d003becc55f0055565b505050565b5f8281526001602081905260409091200154610fd9816115bc565b610fe383836115c6565b50505050565b73ffffffffffffffffffffffffffffffffffffffff81163314611038576040517f6697b23200000000000000000000000000000000000000000000000000000000815260040160405180910390fd5b610fb9828261168e565b7f65d7a28e3265b37a6474929f336521b332c1681b933f6cb9f3376673440d862a61106c816115bc565b610bdc61174b565b61107c611507565b611084611535565b73ffffffffffffffffffffffffffffffffffffffff81165f9081526003602052604090205480611110576040517f08c379a000000000000000000000000000000000000000000000000000000000815260206004820152601360248201527f546f6b656e206e6f7420737570706f72746564000000000000000000000000006044820152606401610684565b5f8381526004602052604090205473ffffffffffffffffffffffffffffffffffffffff161561119b576040517f08c379a000000000000000000000000000000000000000000000000000000000815260206004820152601760248201527f53657373696f6e20616c726561647920737461727465640000000000000000006044820152606401610684565b6040517f23b872dd0000000000000000000000000000000000000000000000000000000081523360048201523060248201526044810182905273ffffffffffffffffffffffffffffffffffffffff8316906323b872dd906064016020604051808303815f875af1158015611211573d5f5f3e3d5ffd5b505050506040513d601f19601f820116820180604052508101906112359190611cf0565b5060408051606081018252338082525f60208084018281528486018381528984526004835292869020945185549151151574010000000000000000000000000000000000000000027fffffffffffffffffffffff00000000000000000000000000000000000000000090921673ffffffffffffffffffffffffffffffffffffffff9091161717845590516001909301929092558251868152918201527f6c49f37597e4c23365e329a588330938d7df1cfcb3790a399f83227a612c2973910160405180910390a15061132660017f9b779b17422d0df92223018b32b4d1fa46e071723d6817e2486d003becc55f0055565b5050565b5f611334816115bc565b5073ffffffffffffffffffffffffffffffffffffffff9091165f90815260036020526040902055565b7f65d7a28e3265b37a6474929f336521b332c1681b933f6cb9f3376673440d862a611387816115bc565b610bdc6117c7565b5f82815260016020819052604090912001546113aa816115bc565b610fe3838361168e565b5f806113bf816115bc565b7fffffffffffffffffffffffff111111111111111111111111111111111111111273ffffffffffffffffffffffffffffffffffffffff851601611463575f8573ffffffffffffffffffffffffffffffffffffffff16846040515f6040518083038185875af1925050503d805f8114611452576040519150601f19603f3d011682016040523d82523d5f602084013e611457565b606091505b509093506114ff915050565b6040517fa9059cbb00000000000000000000000000000000000000000000000000000000815273ffffffffffffffffffffffffffffffffffffffff86811660048301526024820185905285169063a9059cbb906044016020604051808303815f875af11580156114d5573d5f5f3e3d5ffd5b505050506040513d601f19601f820116820180604052508101906114f99190611cf0565b50600191505b509392505050565b61150f611821565b60027f9b779b17422d0df92223018b32b4d1fa46e071723d6817e2486d003becc55f0055565b5f5460ff1615611571576040517fd93c066500000000000000000000000000000000000000000000000000000000815260040160405180910390fd5b565b5f5f5f83516041036115aa576020840151604085015160608601515f1a61159c8882858561187c565b9550955095505050506115b5565b505081515f91506002905b9250925092565b610bdc813361196f565b5f82815260016020908152604080832073ffffffffffffffffffffffffffffffffffffffff8516845290915281205460ff16611687575f83815260016020818152604080842073ffffffffffffffffffffffffffffffffffffffff8716808652925280842080547fffffffffffffffffffffffffffffffffffffffffffffffffffffffffffffff00169093179092559051339286917f2f8788117e7eff1d82e926ec794901d17c78024a50270940304540a733656f0d9190a45060016105f6565b505f6105f6565b5f82815260016020908152604080832073ffffffffffffffffffffffffffffffffffffffff8516845290915281205460ff1615611687575f83815260016020908152604080832073ffffffffffffffffffffffffffffffffffffffff8616808552925280832080547fffffffffffffffffffffffffffffffffffffffffffffffffffffffffffffff0016905551339286917ff6391f5c32d9c69d2a47ea670b442974b53935d1edc7fd64eb21e047a839171b9190a45060016105f6565b6117536119f6565b5f80547fffffffffffffffffffffffffffffffffffffffffffffffffffffffffffffff001690557f5db9ee0a495bf2e6ff9c91a7834c1ba4fdd244a5e8aa4e537bd38aeae4b073aa335b60405173ffffffffffffffffffffffffffffffffffffffff909116815260200160405180910390a1565b6117cf611535565b5f80547fffffffffffffffffffffffffffffffffffffffffffffffffffffffffffffff001660011790557f62e78cea01bee320cd4e420270b5ea74000d11b0c9f74754ebdbfc544b05a25861179d3390565b7f9b779b17422d0df92223018b32b4d1fa46e071723d6817e2486d003becc55f0054600203611571576040517f3ee5aeb500000000000000000000000000000000000000000000000000000000815260040160405180910390fd5b5f80807f7fffffffffffffffffffffffffffffff5d576e7357a4501ddfe92f46681b20a08411156118b557505f91506003905082611965565b604080515f808252602082018084528a905260ff891692820192909252606081018790526080810186905260019060a0016020604051602081039080840390855afa158015611906573d5f5f3e3d5ffd5b50506040517fffffffffffffffffffffffffffffffffffffffffffffffffffffffffffffffe0015191505073ffffffffffffffffffffffffffffffffffffffff811661195c57505f925060019150829050611965565b92505f91508190505b9450945094915050565b5f82815260016020908152604080832073ffffffffffffffffffffffffffffffffffffffff8516845290915290205460ff16611326576040517fe2517d3f00000000000000000000000000000000000000000000000000000000815273ffffffffffffffffffffffffffffffffffffffff8216600482015260248101839052604401610684565b5f5460ff16611571576040517f8dfc202b00000000000000000000000000000000000000000000000000000000815260040160405180910390fd5b5f60208284031215611a41575f5ffd5b81357fffffffff0000000000000000000000000000000000000000000000000000000081168114611a70575f5ffd5b9392505050565b803573ffffffffffffffffffffffffffffffffffffffff81168114611a9a575f5ffd5b919050565b5f5f5f5f5f5f5f60e0888a031215611ab5575f5ffd5b87359650611ac560208901611a77565b95506040880135945060608801359350608088013560ff81168114611ae8575f5ffd5b9699959850939692959460a0840135945060c09093013592915050565b5f60208284031215611b15575f5ffd5b5035919050565b7f4e487b71000000000000000000000000000000000000000000000000000000005f52604160045260245ffd5b5f5f5f60608486031215611b5b575f5ffd5b8335925060208401359150604084013567ffffffffffffffff811115611b7f575f5ffd5b8401601f81018613611b8f575f5ffd5b803567ffffffffffffffff811115611ba957611ba9611b1c565b6040517fffffffffffffffffffffffffffffffffffffffffffffffffffffffffffffffe0603f7fffffffffffffffffffffffffffffffffffffffffffffffffffffffffffffffe0601f8501160116810181811067ffffffffffffffff82111715611c1557611c15611b1c565b604052818152828201602001881015611c2c575f5ffd5b816020840160208301375f602083830101528093505050509250925092565b5f5f60408385031215611c5c575f5ffd5b82359150611c6c60208401611a77565b90509250929050565b5f60208284031215611c85575f5ffd5b611a7082611a77565b5f5f60408385031215611c9f575f5ffd5b611ca883611a77565b946020939093013593505050565b5f5f5f60608486031215611cc8575f5ffd5b611cd184611a77565b9250611cdf60208501611a77565b929592945050506040919091013590565b5f60208284031215611d00575f5ffd5b81518015158114611a70575f5ffd5b7f4e487b71000000000000000000000000000000000000000000000000000000005f52602160045260245ffdfea164736f6c634300081e000a",
  "devdoc": {
    "errors": {
      "AccessControlBadConfirmation()": [
        {
          "details": "The caller of a function is not the expected one. NOTE: Don't confuse with {AccessControlUnauthorizedAccount}."
        }
      ],
      "AccessControlUnauthorizedAccount(address,bytes32)": [
        {
          "details": "The `account` is missing a role."
        }
      ],
      "EnforcedPause()": [
        {
          "details": "The operation failed because the contract is paused."
        }
      ],
      "ExpectedPause()": [
        {
          "details": "The operation failed because the contract is not paused."
        }
      ],
      "ReentrancyGuardReentrantCall()": [
        {
          "details": "Unauthorized reentrant call."
        }
      ]
    },
    "events": {
      "Paused(address)": {
        "details": "Emitted when the pause is triggered by `account`."
      },
      "RoleAdminChanged(bytes32,bytes32,bytes32)": {
        "details": "Emitted when `newAdminRole` is set as ``role``'s admin role, replacing `previousAdminRole` `DEFAULT_ADMIN_ROLE` is the starting admin for all roles, despite {RoleAdminChanged} not being emitted to signal this."
      },
      "RoleGranted(bytes32,address,address)": {
        "details": "Emitted when `account` is granted `role`. `sender` is the account that originated the contract call. This account bears the admin role (for the granted role). Expected in cases where the role was granted using the internal {AccessControl-_grantRole}."
      },
      "RoleRevoked(bytes32,address,address)": {
        "details": "Emitted when `account` is revoked `role`. `sender` is the account that originated the contract call:   - if using `revokeRole`, it is the admin role bearer   - if using `renounceRole`, it is the role bearer (i.e. `account`)"
      },
      "Unpaused(address)": {
        "details": "Emitted when the pause is lifted by `account`."
      }
    },
    "kind": "dev",
    "methods": {
      "getRoleAdmin(bytes32)": {
        "details": "Returns the admin role that controls `role`. See {grantRole} and {revokeRole}. To change a role's admin, use {_setRoleAdmin}."
      },
      "grantRole(bytes32,address)": {
        "details": "Grants `role` to `account`. If `account` had not been already granted `role`, emits a {RoleGranted} event. Requirements: - the caller must have ``role``'s admin role. May emit a {RoleGranted} event."
      },
      "hasRole(bytes32,address)": {
        "details": "Returns `true` if `account` has been granted `role`."
      },
      "paused()": {
        "details": "Returns true if the contract is paused, and false otherwise."
      },
      "renounceRole(bytes32,address)": {
        "details": "Revokes `role` from the calling account. Roles are often managed via {grantRole} and {revokeRole}: this function's purpose is to provide a mechanism for accounts to lose their privileges if they are compromised (such as when a trusted device is misplaced). If the calling account had been revoked `role`, emits a {RoleRevoked} event. Requirements: - the caller must be `callerConfirmation`. May emit a {RoleRevoked} event."
      },
      "revokeRole(bytes32,address)": {
        "details": "Revokes `role` from `account`. If `account` had been granted `role`, emits a {RoleRevoked} event. Requirements: - the caller must have ``role``'s admin role. May emit a {RoleRevoked} event."
      },
      "supportsInterface(bytes4)": {
        "details": "Returns true if this contract implements the interface defined by `interfaceId`. See the corresponding https://eips.ethereum.org/EIPS/eip-165#how-interfaces-are-identified[ERC section] to learn more about how these ids are created. This function call must use less than 30 000 gas."
      }
    },
    "version": 1
  },
  "userdoc": {
    "kind": "user",
    "methods": {},
    "version": 1
  },
  "storageLayout": {
    "storage": [
      {
        "astId": 1297,
        "contract": "contracts/TradCastGame2.sol:TradCastGame2",
        "label": "_paused",
        "offset": 0,
        "slot": "0",
        "type": "t_bool"
      },
      {
        "astId": 27,
        "contract": "contracts/TradCastGame2.sol:TradCastGame2",
        "label": "_roles",
        "offset": 0,
        "slot": "1",
        "type": "t_mapping(t_bytes32,t_struct(RoleData)22_storage)"
      },
      {
        "astId": 7295,
        "contract": "contracts/TradCastGame2.sol:TradCastGame2",
        "label": "tradCastPointToken",
        "offset": 0,
        "slot": "2",
        "type": "t_contract(IERC20Mintable)7271"
      },
      {
        "astId": 7299,
        "contract": "contracts/TradCastGame2.sol:TradCastGame2",
        "label": "priceByToken",
        "offset": 0,
        "slot": "3",
        "type": "t_mapping(t_address,t_uint256)"
      },
      {
        "astId": 7311,
        "contract": "contracts/TradCastGame2.sol:TradCastGame2",
        "label": "gameSessions",
        "offset": 0,
        "slot": "4",
        "type": "t_mapping(t_uint256,t_struct(GameSession)7306_storage)"
      }
    ],
    "types": {
      "t_address": {
        "encoding": "inplace",
        "label": "address",
        "numberOfBytes": "20"
      },
      "t_bool": {
        "encoding": "inplace",
        "label": "bool",
        "numberOfBytes": "1"
      },
      "t_bytes32": {
        "encoding": "inplace",
        "label": "bytes32",
        "numberOfBytes": "32"
      },
      "t_contract(IERC20Mintable)7271": {
        "encoding": "inplace",
        "label": "contract IERC20Mintable",
        "numberOfBytes": "20"
      },
      "t_mapping(t_address,t_bool)": {
        "encoding": "mapping",
        "key": "t_address",
        "label": "mapping(address => bool)",
        "numberOfBytes": "32",
        "value": "t_bool"
      },
      "t_mapping(t_address,t_uint256)": {
        "encoding": "mapping",
        "key": "t_address",
        "label": "mapping(address => uint256)",
        "numberOfBytes": "32",
        "value": "t_uint256"
      },
      "t_mapping(t_bytes32,t_struct(RoleData)22_storage)": {
        "encoding": "mapping",
        "key": "t_bytes32",
        "label": "mapping(bytes32 => struct AccessControl.RoleData)",
        "numberOfBytes": "32",
        "value": "t_struct(RoleData)22_storage"
      },
      "t_mapping(t_uint256,t_struct(GameSession)7306_storage)": {
        "encoding": "mapping",
        "key": "t_uint256",
        "label": "mapping(uint256 => struct TradCastGame2.GameSession)",
        "numberOfBytes": "32",
        "value": "t_struct(GameSession)7306_storage"
      },
      "t_struct(GameSession)7306_storage": {
        "encoding": "inplace",
        "label": "struct TradCastGame2.GameSession",
        "members": [
          {
            "astId": 7301,
            "contract": "contracts/TradCastGame2.sol:TradCastGame2",
            "label": "player",
            "offset": 0,
            "slot": "0",
            "type": "t_address"
          },
          {
            "astId": 7303,
            "contract": "contracts/TradCastGame2.sol:TradCastGame2",
            "label": "isEnded",
            "offset": 20,
            "slot": "0",
            "type": "t_bool"
          },
          {
            "astId": 7305,
            "contract": "contracts/TradCastGame2.sol:TradCastGame2",
            "label": "points",
            "offset": 0,
            "slot": "1",
            "type": "t_uint256"
          }
        ],
        "numberOfBytes": "64"
      },
      "t_struct(RoleData)22_storage": {
        "encoding": "inplace",
        "label": "struct AccessControl.RoleData",
        "members": [
          {
            "astId": 19,
            "contract": "contracts/TradCastGame2.sol:TradCastGame2",
            "label": "hasRole",
            "offset": 0,
            "slot": "0",
            "type": "t_mapping(t_address,t_bool)"
          },
          {
            "astId": 21,
            "contract": "contracts/TradCastGame2.sol:TradCastGame2",
            "label": "adminRole",
            "offset": 0,
            "slot": "1",
            "type": "t_bytes32"
          }
        ],
        "numberOfBytes": "64"
      },
      "t_uint256": {
        "encoding": "inplace",
        "label": "uint256",
        "numberOfBytes": "32"
      }
    }
  }
}